:1001DA00513C7F0A7E00518B5111751001751164D3
:1001EA007512050511D3E511946474809480400F4B
:1001FA00E4F5110510E510B51205751001B2B07FCE
:07020A00017E00518B80DC36
:10023C0075A15575A1AA43B94053B97F75A15575E0
:0E024C00A1AAE5B954F84406F5B9E4F5A122DB
:10025A00EF4E601505A105A105A105A105A105A1FE
:0A026A0005A1EF1F70EA1E80E722D5
:10028B00AD07AC06ED4C600D7FE87E03515AED1DBA
:06029B0070F21C80EF224E
:0402BC0043C6102203
:10016300C29FD29EC29DC2CDC2CC438780E4750B91
:1001730004750A01F509F5087B0AFAF9F8AF0BAE25
:100183000AAD09AC08113FAF038F0CAF0BAE0AAD3C
:1001930009AC08E47B0AFAF9F8113F8F0B8E0A8D3C
:1001A300098C08C3E50C9405748094804011EF24F6
:1001B30001F50BE43EF50AE43DF509E43CF508E5F9
:1001C30089540F4420F58943C9A0E50BF404F58D48
:0601D300D28ED299D29CED
:0101D9002203
:0802A1003098FDC298AF9922CC
:0802A9008F993099FDC29922E2
:1002740075A15575A1AAEF600543B101800353B17F
:07028400FEE4F5A1F5FF22E5
:0302C0008FFF228B
:0502B100030D00380000
:10021100E4F5E275E20653E2FB53D17F5396BF53F7
:1002210097BF7F0AFE518B30B610C2AFE4F5897FCC
:0B02310064FE518BAA0EA90F11D12210
:0502B700E5D1A2E522E3
:030000000200D724
:0C00D700787FE4F6D8FD75811202011E4E
:1000030075F008758200EF2FFFEE33FECD33CDCCB4
:1000130033CCC58233C5829BED9AEC99E582984037
:100023000CF582EE9BFEED9AFDEC99FC0FD5F0D614
:10003300E4CEFBE4CDFAE4CCF9A88222B800C1B93E
:100043000059BA002DEC8BF084CFCECDFCE5F0CB7C
:10005300F97818EF2FFFEE33FEED33FDEC33FCEBB5
:1000630033FB10D703994004EB99FB0FD8E5E4F970
:10007300FA227818EF2FFFEE33FEED33FDEC33FC5D
:10008300C933C910D7059BE99A4007EC9BFCE99A51
:10009300F90FD8E0E4C9FAE4CCFB2275F010EF2F96
:1000A300FFEE33FEED33FDCC33CCC833C810D70796
:1000B3009BEC9AE899400AED9BFDEC9AFCE899F8D1
:0E00C3000FD5F0DAE4CDFBE4CCFAE4C8F92264
:0600D1008A838982E473BA
:1000E3000201DAE493A3F8E493A34003F68001F258
:1000F30008DFF48029E493A3F85407240CC8C3331E
:10010300C4540F4420C8834004F456800146F6DFEC
:10011300E4800B01020408102040809002B1E47EC9
:10012300019360BCA3FF543F30E509541FFEE493E1
:10013300A360010ECF54C025E060A840B8E493A3A8
:10014300FAE493A3F8E493A3C8C582C8CAC583CAD3
:10015300F0A3C8C582C8CAC583CADFE9DEE780BE8B
:0102B6000047
:00000001FF
