:040000000200333295
:01000B0032C2
:0100130032BA
:01001B0032B2
:0100230032AA
:03002B000200FAD6
:09008C0075080075093802002E08
:03002E000200C508
:1000950075E20075E20653E2FB53D17F5396BF53D9
:1000A50097BF90000A12028E30B614C2AF7589014F
:1000B50090006412028E8508828509830200312230
:1000C50012025290000A12028E120095120139D2C4
:1000D500AF7F017E000EEE249B500A7E000FBF0508
:1000E500047F01B2B0900000C007C00612017ED0A7
:1000F50006D00780E0C020C0E0C0F0C082C083C049
:1001050007C006C005C004C003C002C001C000C0CE
:10011500D075D0001201DED0D0D000D001D002D0F1
:1001250003D004D005D006D007D083D082D0F0D03C
:10013500E0D02032900400E4F0A3F043C9C0C2C966
:10014500C2CDC2CCC2C8750AC0750B5D75820212DC
:100155000225D2CAD2AD22900400E0FEA3E0FF0E34
:10016500BE00010F900400EEF0EFA3F02290040012
:10017500E0FEA3E08E82F58322AE82AF83C007C086
:1001850006120172AC82AD83D006D007900402EE50
:10019500F0EFA3F0C3EE94FFEF94FF500D0EBE00F9
:1001A500010F900402EEF0EFA3F0900402E0FEA32D
:1001B500E0FFC007C006C005C004120172E58285D4
:1001C50083F0D004D005D006D007C39CFAE5F09D96
:1001D500FBC3EA9EEB9F40DA22900400E02401F085
:1001E500A3E03400F0C2CF22E582FF700DE589540B
:1001F500F0FEE50AFD4EF5898022BF0110E5895420
:100205000FFEE50AC454F0FD4EF589800FBF0208C4
:10021500C2CDC2CCC2C8800475820122758200227B
:10022500AF82AD0AAE0BC3E49DFDE49EFEEF700503
:100235008D8A8E8C22BF01058D8B8E8D22BF020C7F
:100245008D078FCC8FCA8E058DCD8DCB2275A1558F
:1002550075A1AA43B94053B97F75A15575A1AA7473
:10026500F855B94406F5B975A10022AE82AF83EE03
:100275004F601505A105A105A105A105A105A105CC
:10028500A11EBEFF011F80E722AE82AF83EE4F6045
:10029500159003E8C007C006120270D006D0071EED
:1002A500BEFF011F80E722AE82AF8310990280FB5B
:1002B5008E998E828F832210980280FBAE997F00E3
:0502C5008E828F8322F0
:06006200E478FFF6D8FD72
:100040007900E94400601B7A009002CE780475A024
:1000500004E493F2A308B8000205A0D9F4DAF2751B
:02006000A0FFFF
:100068007800E84400600A790075A004E4F309D830
:10007800FC7804E84400600C7901900400E4F0A3E3
:04008800D8FCD9FACD
:0F003100E4737581201202CAE582600302002E7B
:0402CA007582002217
:00000001FF
